{
  "_format": "hh-sol-artifact-1",
  "contractName": "DecentRaise",
  "sourceName": "contracts/DecentRaise.sol",
  "abi": [
    {
      "inputs": [],
      "stateMutability": "nonpayable",
      "type": "constructor"
    },
    {
      "inputs": [
        {
          "internalType": "uint256",
          "name": "",
          "type": "uint256"
        }
      ],
      "name": "campaigns",
      "outputs": [
        {
          "internalType": "string",
          "name": "name",
          "type": "string"
        },
        {
          "internalType": "string",
          "name": "tagline",
          "type": "string"
        },
        {
          "internalType": "string",
          "name": "description",
          "type": "string"
        },
        {
          "internalType": "string",
          "name": "logo",
          "type": "string"
        },
        {
          "internalType": "string",
          "name": "projectLink",
          "type": "string"
        },
        {
          "internalType": "string",
          "name": "cover",
          "type": "string"
        },
        {
          "internalType": "string",
          "name": "twitter",
          "type": "string"
        },
        {
          "internalType": "uint256",
          "name": "goal",
          "type": "uint256"
        },
        {
          "internalType": "uint256",
          "name": "deadline",
          "type": "uint256"
        },
        {
          "internalType": "uint256",
          "name": "totalContributions",
          "type": "uint256"
        },
        {
          "internalType": "bool",
          "name": "isCampaignActive",
          "type": "bool"
        },
        {
          "internalType": "address",
          "name": "nftAddress",
          "type": "address"
        }
      ],
      "stateMutability": "view",
      "type": "function"
    },
    {
      "inputs": [
        {
          "internalType": "uint256",
          "name": "campaignId",
          "type": "uint256"
        }
      ],
      "name": "contribute",
      "outputs": [],
      "stateMutability": "payable",
      "type": "function"
    },
    {
      "inputs": [
        {
          "internalType": "string",
          "name": "_name",
          "type": "string"
        },
        {
          "internalType": "string",
          "name": "_tagline",
          "type": "string"
        },
        {
          "internalType": "string",
          "name": "_description",
          "type": "string"
        },
        {
          "internalType": "string",
          "name": "_logo",
          "type": "string"
        },
        {
          "internalType": "string",
          "name": "_cover",
          "type": "string"
        },
        {
          "internalType": "string",
          "name": "_projectLink",
          "type": "string"
        },
        {
          "internalType": "string",
          "name": "_twitter",
          "type": "string"
        },
        {
          "internalType": "string",
          "name": "_tokenSymbol",
          "type": "string"
        },
        {
          "internalType": "uint256",
          "name": "_goal",
          "type": "uint256"
        },
        {
          "internalType": "uint256",
          "name": "_durationDays",
          "type": "uint256"
        }
      ],
      "name": "createCampaign",
      "outputs": [],
      "stateMutability": "nonpayable",
      "type": "function"
    },
    {
      "inputs": [
        {
          "internalType": "uint256",
          "name": "campaignId",
          "type": "uint256"
        }
      ],
      "name": "getRefund",
      "outputs": [],
      "stateMutability": "nonpayable",
      "type": "function"
    },
    {
      "inputs": [],
      "name": "totalCampaigns",
      "outputs": [
        {
          "internalType": "uint256",
          "name": "",
          "type": "uint256"
        }
      ],
      "stateMutability": "view",
      "type": "function"
    },
    {
      "inputs": [
        {
          "internalType": "uint256",
          "name": "campaignId",
          "type": "uint256"
        }
      ],
      "name": "withdrawFunds",
      "outputs": [],
      "stateMutability": "nonpayable",
      "type": "function"
    }
  ],
  "bytecode": "0x6080604052600060025534801561001557600080fd5b50615f0d806100256000396000f3fe6080604052600436106200005c5760003560e01c806302932f56146200006157806302ec58fa1462000091578063141961bc14620000bf578063155dd5ee146200010e578063c1cbbca7146200013c578063d2f0be99146200015c575b600080fd5b3480156200006e57600080fd5b50620000796200018a565b604051620000889190620011c2565b60405180910390f35b3480156200009e57600080fd5b50620000bd6004803603810190620000b7919062001386565b62000190565b005b348015620000cc57600080fd5b50620000eb6004803603810190620000e5919062001574565b620003dd565b604051620001059c9b9a9998979695949392919062001691565b60405180910390f35b3480156200011b57600080fd5b506200013a600480360381019062000134919062001574565b6200086b565b005b6200015a600480360381019062000154919062001574565b62000ba4565b005b3480156200016957600080fd5b5062000188600480360381019062000182919062001574565b62000ef4565b005b60025481565b60008a84604051620001a29062001199565b620001af92919062001794565b604051809103906000f080158015620001cc573d6000803e3d6000fd5b50905060026000815480929190620001e490620017fe565b919050555060016040518061018001604052808d81526020018c81526020018b81526020018a815260200188815260200189815260200187815260200185815260200162015180856200023891906200184b565b4262000245919062001896565b8152602001600081526020016001151581526020018373ffffffffffffffffffffffffffffffffffffffff1681525090806001815401808255809150506001900390600052602060002090600b02016000909190919091506000820151816000019081620002b4919062001b07565b506020820151816001019081620002cc919062001b07565b506040820151816002019081620002e4919062001b07565b506060820151816003019081620002fc919062001b07565b50608082015181600401908162000314919062001b07565b5060a08201518160050190816200032c919062001b07565b5060c082015181600601908162000344919062001b07565b5060e082015181600701556101008201518160080155610120820151816009015561014082015181600a0160006101000a81548160ff02191690831515021790555061016082015181600a0160016101000a81548173ffffffffffffffffffffffffffffffffffffffff021916908373ffffffffffffffffffffffffffffffffffffffff16021790555050505050505050505050505050565b60018181548110620003ee57600080fd5b90600052602060002090600b0201600091509050806000018054620004139062001900565b80601f0160208091040260200160405190810160405280929190818152602001828054620004419062001900565b8015620004925780601f10620004665761010080835404028352916020019162000492565b820191906000526020600020905b8154815290600101906020018083116200047457829003601f168201915b505050505090806001018054620004a99062001900565b80601f0160208091040260200160405190810160405280929190818152602001828054620004d79062001900565b8015620005285780601f10620004fc5761010080835404028352916020019162000528565b820191906000526020600020905b8154815290600101906020018083116200050a57829003601f168201915b5050505050908060020180546200053f9062001900565b80601f01602080910402602001604051908101604052809291908181526020018280546200056d9062001900565b8015620005be5780601f106200059257610100808354040283529160200191620005be565b820191906000526020600020905b815481529060010190602001808311620005a057829003601f168201915b505050505090806003018054620005d59062001900565b80601f0160208091040260200160405190810160405280929190818152602001828054620006039062001900565b8015620006545780601f10620006285761010080835404028352916020019162000654565b820191906000526020600020905b8154815290600101906020018083116200063657829003601f168201915b5050505050908060040180546200066b9062001900565b80601f0160208091040260200160405190810160405280929190818152602001828054620006999062001900565b8015620006ea5780601f10620006be57610100808354040283529160200191620006ea565b820191906000526020600020905b815481529060010190602001808311620006cc57829003601f168201915b505050505090806005018054620007019062001900565b80601f01602080910402602001604051908101604052809291908181526020018280546200072f9062001900565b8015620007805780601f10620007545761010080835404028352916020019162000780565b820191906000526020600020905b8154815290600101906020018083116200076257829003601f168201915b505050505090806006018054620007979062001900565b80601f0160208091040260200160405190810160405280929190818152602001828054620007c59062001900565b8015620008165780601f10620007ea5761010080835404028352916020019162000816565b820191906000526020600020905b815481529060010190602001808311620007f857829003601f168201915b50505050509080600701549080600801549080600901549080600a0160009054906101000a900460ff169080600a0160019054906101000a900473ffffffffffffffffffffffffffffffffffffffff1690508c565b806001818154811062000883576200088262001bee565b5b90600052602060002090600b0201600a0160009054906101000a900460ff16620008e4576040517f08c379a0000000000000000000000000000000000000000000000000000000008152600401620008db9062001c6d565b60405180910390fd5b60018281548110620008fb57620008fa62001bee565b5b90600052602060002090600b02016008015442101562000952576040517f08c379a0000000000000000000000000000000000000000000000000000000008152600401620009499062001cdf565b60405180910390fd5b6001828154811062000969576200096862001bee565b5b90600052602060002090600b0201600701546001838154811062000992576200099162001bee565b5b90600052602060002090600b0201600901541015620009e8576040517f08c379a0000000000000000000000000000000000000000000000000000000008152600401620009df9062001d51565b60405180910390fd5b600080600084815260200190815260200160002060003373ffffffffffffffffffffffffffffffffffffffff1673ffffffffffffffffffffffffffffffffffffffff168152602001908152602001600020541162000a7d576040517f08c379a000000000000000000000000000000000000000000000000000000000815260040162000a749062001dc3565b60405180910390fd5b60006001838154811062000a965762000a9562001bee565b5b90600052602060002090600b0201600a0160006101000a81548160ff02191690831515021790555060006001838154811062000ad75762000ad662001bee565b5b90600052602060002090600b020160090154905060003373ffffffffffffffffffffffffffffffffffffffff168260405162000b139062001e1a565b60006040518083038185875af1925050503d806000811462000b52576040519150601f19603f3d011682016040523d82523d6000602084013e62000b57565b606091505b505090508062000b9e576040517f08c379a000000000000000000000000000000000000000000000000000000000815260040162000b959062001e81565b60405180910390fd5b50505050565b806001818154811062000bbc5762000bbb62001bee565b5b90600052602060002090600b0201600a0160009054906101000a900460ff1662000c1d576040517f08c379a000000000000000000000000000000000000000000000000000000000815260040162000c149062001c6d565b60405180910390fd5b6001828154811062000c345762000c3362001bee565b5b90600052602060002090600b020160080154421062000c8a576040517f08c379a000000000000000000000000000000000000000000000000000000000815260040162000c819062001c6d565b60405180910390fd5b6000341162000cd0576040517f08c379a000000000000000000000000000000000000000000000000000000000815260040162000cc79062001ef3565b60405180910390fd5b3460008084815260200190815260200160002060003373ffffffffffffffffffffffffffffffffffffffff1673ffffffffffffffffffffffffffffffffffffffff168152602001908152602001600020600082825462000d31919062001896565b92505081905550346001838154811062000d505762000d4f62001bee565b5b90600052602060002090600b0201600901600082825462000d72919062001896565b9250508190555060006001838154811062000d925762000d9162001bee565b5b90600052602060002090600b0201600301805462000db09062001900565b80601f016020809104026020016040519081016040528092919081815260200182805462000dde9062001900565b801562000e2f5780601f1062000e035761010080835404028352916020019162000e2f565b820191906000526020600020905b81548152906001019060200180831162000e1157829003601f168201915b505050505090506001838154811062000e4d5762000e4c62001bee565b5b90600052602060002090600b0201600a0160019054906101000a900473ffffffffffffffffffffffffffffffffffffffff1673ffffffffffffffffffffffffffffffffffffffff1663d204c45e33836040518363ffffffff1660e01b815260040162000ebb92919062001f15565b600060405180830381600087803b15801562000ed657600080fd5b505af115801562000eeb573d6000803e3d6000fd5b50505050505050565b6001818154811062000f0b5762000f0a62001bee565b5b90600052602060002090600b02016008015442101562000f62576040517f08c379a000000000000000000000000000000000000000000000000000000000815260040162000f599062001f99565b60405180910390fd5b6001818154811062000f795762000f7862001bee565b5b90600052602060002090600b0201600701546001828154811062000fa25762000fa162001bee565b5b90600052602060002090600b0201600901541062000ff7576040517f08c379a000000000000000000000000000000000000000000000000000000000815260040162000fee906200200b565b60405180910390fd5b60006001828154811062001010576200100f62001bee565b5b90600052602060002090600b0201600a0160006101000a81548160ff021916908315150217905550600080600083815260200190815260200160002060003373ffffffffffffffffffffffffffffffffffffffff1673ffffffffffffffffffffffffffffffffffffffff168152602001908152602001600020549050600080600084815260200190815260200160002060003373ffffffffffffffffffffffffffffffffffffffff1673ffffffffffffffffffffffffffffffffffffffff1681526020019081526020016000208190555060003373ffffffffffffffffffffffffffffffffffffffff1682604051620011099062001e1a565b60006040518083038185875af1925050503d806000811462001148576040519150601f19603f3d011682016040523d82523d6000602084013e6200114d565b606091505b505090508062001194576040517f08c379a00000000000000000000000000000000000000000000000000000000081526004016200118b9062001e81565b60405180910390fd5b505050565b613eaa806200202e83390190565b6000819050919050565b620011bc81620011a7565b82525050565b6000602082019050620011d96000830184620011b1565b92915050565b6000604051905090565b600080fd5b600080fd5b600080fd5b600080fd5b6000601f19601f8301169050919050565b7f4e487b7100000000000000000000000000000000000000000000000000000000600052604160045260246000fd5b6200124882620011fd565b810181811067ffffffffffffffff821117156200126a57620012696200120e565b5b80604052505050565b60006200127f620011df565b90506200128d82826200123d565b919050565b600067ffffffffffffffff821115620012b057620012af6200120e565b5b620012bb82620011fd565b9050602081019050919050565b82818337600083830152505050565b6000620012ee620012e88462001292565b62001273565b9050828152602081018484840111156200130d576200130c620011f8565b5b6200131a848285620012c8565b509392505050565b600082601f8301126200133a5762001339620011f3565b5b81356200134c848260208601620012d7565b91505092915050565b6200136081620011a7565b81146200136c57600080fd5b50565b600081359050620013808162001355565b92915050565b6000806000806000806000806000806101408b8d031215620013ad57620013ac620011e9565b5b60008b013567ffffffffffffffff811115620013ce57620013cd620011ee565b5b620013dc8d828e0162001322565b9a505060208b013567ffffffffffffffff8111156200140057620013ff620011ee565b5b6200140e8d828e0162001322565b99505060408b013567ffffffffffffffff811115620014325762001431620011ee565b5b620014408d828e0162001322565b98505060608b013567ffffffffffffffff811115620014645762001463620011ee565b5b620014728d828e0162001322565b97505060808b013567ffffffffffffffff811115620014965762001495620011ee565b5b620014a48d828e0162001322565b96505060a08b013567ffffffffffffffff811115620014c857620014c7620011ee565b5b620014d68d828e0162001322565b95505060c08b013567ffffffffffffffff811115620014fa57620014f9620011ee565b5b620015088d828e0162001322565b94505060e08b013567ffffffffffffffff8111156200152c576200152b620011ee565b5b6200153a8d828e0162001322565b9350506101006200154e8d828e016200136f565b925050610120620015628d828e016200136f565b9150509295989b9194979a5092959850565b6000602082840312156200158d576200158c620011e9565b5b60006200159d848285016200136f565b91505092915050565b600081519050919050565b600082825260208201905092915050565b60005b83811015620015e2578082015181840152602081019050620015c5565b60008484015250505050565b6000620015fb82620015a6565b620016078185620015b1565b935062001619818560208601620015c2565b6200162481620011fd565b840191505092915050565b60008115159050919050565b62001646816200162f565b82525050565b600073ffffffffffffffffffffffffffffffffffffffff82169050919050565b600062001679826200164c565b9050919050565b6200168b816200166c565b82525050565b6000610180820190508181036000830152620016ae818f620015ee565b90508181036020830152620016c4818e620015ee565b90508181036040830152620016da818d620015ee565b90508181036060830152620016f0818c620015ee565b9050818103608083015262001706818b620015ee565b905081810360a08301526200171c818a620015ee565b905081810360c0830152620017328189620015ee565b90506200174360e0830188620011b1565b62001753610100830187620011b1565b62001763610120830186620011b1565b620017736101408301856200163b565b6200178361016083018462001680565b9d9c50505050505050505050505050565b60006040820190508181036000830152620017b08185620015ee565b90508181036020830152620017c68184620015ee565b90509392505050565b7f4e487b7100000000000000000000000000000000000000000000000000000000600052601160045260246000fd5b60006200180b82620011a7565b91507fffffffffffffffffffffffffffffffffffffffffffffffffffffffffffffffff820362001840576200183f620017cf565b5b600182019050919050565b60006200185882620011a7565b91506200186583620011a7565b92508282026200187581620011a7565b915082820484148315176200188f576200188e620017cf565b5b5092915050565b6000620018a382620011a7565b9150620018b083620011a7565b9250828201905080821115620018cb57620018ca620017cf565b5b92915050565b7f4e487b7100000000000000000000000000000000000000000000000000000000600052602260045260246000fd5b600060028204905060018216806200191957607f821691505b6020821081036200192f576200192e620018d1565b5b50919050565b60008190508160005260206000209050919050565b60006020601f8301049050919050565b600082821b905092915050565b600060088302620019997fffffffffffffffffffffffffffffffffffffffffffffffffffffffffffffffff826200195a565b620019a586836200195a565b95508019841693508086168417925050509392505050565b6000819050919050565b6000620019e8620019e2620019dc84620011a7565b620019bd565b620011a7565b9050919050565b6000819050919050565b62001a0483620019c7565b62001a1c62001a1382620019ef565b84845462001967565b825550505050565b600090565b62001a3362001a24565b62001a40818484620019f9565b505050565b5b8181101562001a685762001a5c60008262001a29565b60018101905062001a46565b5050565b601f82111562001ab75762001a818162001935565b62001a8c846200194a565b8101602085101562001a9c578190505b62001ab462001aab856200194a565b83018262001a45565b50505b505050565b600082821c905092915050565b600062001adc6000198460080262001abc565b1980831691505092915050565b600062001af7838362001ac9565b9150826002028217905092915050565b62001b1282620015a6565b67ffffffffffffffff81111562001b2e5762001b2d6200120e565b5b62001b3a825462001900565b62001b4782828562001a6c565b600060209050601f83116001811462001b7f576000841562001b6a578287015190505b62001b76858262001ae9565b86555062001be6565b601f19841662001b8f8662001935565b60005b8281101562001bb95784890151825560018201915060208501945060208101905062001b92565b8683101562001bd9578489015162001bd5601f89168262001ac9565b8355505b6001600288020188555050505b505050505050565b7f4e487b7100000000000000000000000000000000000000000000000000000000600052603260045260246000fd5b7f43616d706169676e206973206e6f742061637469766500000000000000000000600082015250565b600062001c55601683620015b1565b915062001c628262001c1d565b602082019050919050565b6000602082019050818103600083015262001c888162001c46565b9050919050565b7f43616d706169676e206973207374696c6c206163746976650000000000000000600082015250565b600062001cc7601883620015b1565b915062001cd48262001c8f565b602082019050919050565b6000602082019050818103600083015262001cfa8162001cb8565b9050919050565b7f43616d7061696e6720776173206e6f74207375636365737366756c6c00000000600082015250565b600062001d39601c83620015b1565b915062001d468262001d01565b602082019050919050565b6000602082019050818103600083015262001d6c8162001d2a565b9050919050565b7f4e6f2066756e647320746f207769746864726177000000000000000000000000600082015250565b600062001dab601483620015b1565b915062001db88262001d73565b602082019050919050565b6000602082019050818103600083015262001dde8162001d9c565b9050919050565b600081905092915050565b50565b600062001e0260008362001de5565b915062001e0f8262001df0565b600082019050919050565b600062001e278262001df3565b9150819050919050565b7f5472616e73666572206661696c65640000000000000000000000000000000000600082015250565b600062001e69600f83620015b1565b915062001e768262001e31565b602082019050919050565b6000602082019050818103600083015262001e9c8162001e5a565b9050919050565b7f436f6e747269627574696f6e206d757374206265203e20300000000000000000600082015250565b600062001edb601883620015b1565b915062001ee88262001ea3565b602082019050919050565b6000602082019050818103600083015262001f0e8162001ecc565b9050919050565b600060408201905062001f2c600083018562001680565b818103602083015262001f408184620015ee565b90509392505050565b7f43616d706169676e20686173206e6f7420656e64656400000000000000000000600082015250565b600062001f81601683620015b1565b915062001f8e8262001f49565b602082019050919050565b6000602082019050818103600083015262001fb48162001f72565b9050919050565b7f43616d7061696e6720776173207375636365737366756c6c0000000000000000600082015250565b600062001ff3601883620015b1565b9150620020008262001fbb565b602082019050919050565b60006020820190508181036000830152620020268162001fe4565b905091905056fe60806040523480156200001157600080fd5b5060405162003eaa38038062003eaa8339818101604052810190620000379190620002e8565b818181600090816200004a9190620005b8565b5080600190816200005c9190620005b8565b5050506200007f620000736200008760201b60201c565b6200008f60201b60201c565b50506200069f565b600033905090565b6000600b60009054906101000a900473ffffffffffffffffffffffffffffffffffffffff16905081600b60006101000a81548173ffffffffffffffffffffffffffffffffffffffff021916908373ffffffffffffffffffffffffffffffffffffffff1602179055508173ffffffffffffffffffffffffffffffffffffffff168173ffffffffffffffffffffffffffffffffffffffff167f8be0079c531659141344cd1fd0a4f28419497f9722a3daafe3b4186f6b6457e060405160405180910390a35050565b6000604051905090565b600080fd5b600080fd5b600080fd5b600080fd5b6000601f19601f8301169050919050565b7f4e487b7100000000000000000000000000000000000000000000000000000000600052604160045260246000fd5b620001be8262000173565b810181811067ffffffffffffffff82111715620001e057620001df62000184565b5b80604052505050565b6000620001f562000155565b9050620002038282620001b3565b919050565b600067ffffffffffffffff82111562000226576200022562000184565b5b620002318262000173565b9050602081019050919050565b60005b838110156200025e57808201518184015260208101905062000241565b60008484015250505050565b6000620002816200027b8462000208565b620001e9565b905082815260208101848484011115620002a0576200029f6200016e565b5b620002ad8482856200023e565b509392505050565b600082601f830112620002cd57620002cc62000169565b5b8151620002df8482602086016200026a565b91505092915050565b600080604083850312156200030257620003016200015f565b5b600083015167ffffffffffffffff81111562000323576200032262000164565b5b6200033185828601620002b5565b925050602083015167ffffffffffffffff81111562000355576200035462000164565b5b6200036385828601620002b5565b9150509250929050565b600081519050919050565b7f4e487b7100000000000000000000000000000000000000000000000000000000600052602260045260246000fd5b60006002820490506001821680620003c057607f821691505b602082108103620003d657620003d562000378565b5b50919050565b60008190508160005260206000209050919050565b60006020601f8301049050919050565b600082821b905092915050565b600060088302620004407fffffffffffffffffffffffffffffffffffffffffffffffffffffffffffffffff8262000401565b6200044c868362000401565b95508019841693508086168417925050509392505050565b6000819050919050565b6000819050919050565b600062000499620004936200048d8462000464565b6200046e565b62000464565b9050919050565b6000819050919050565b620004b58362000478565b620004cd620004c482620004a0565b8484546200040e565b825550505050565b600090565b620004e4620004d5565b620004f1818484620004aa565b505050565b5b8181101562000519576200050d600082620004da565b600181019050620004f7565b5050565b601f82111562000568576200053281620003dc565b6200053d84620003f1565b810160208510156200054d578190505b620005656200055c85620003f1565b830182620004f6565b50505b505050565b600082821c905092915050565b60006200058d600019846008026200056d565b1980831691505092915050565b6000620005a883836200057a565b9150826002028217905092915050565b620005c3826200036d565b67ffffffffffffffff811115620005df57620005de62000184565b5b620005eb8254620003a7565b620005f88282856200051d565b600060209050601f8311600181146200063057600084156200061b578287015190505b6200062785826200059a565b86555062000697565b601f1984166200064086620003dc565b60005b828110156200066a5784890151825560018201915060208501945060208101905062000643565b868310156200068a578489015162000686601f8916826200057a565b8355505b6001600288020188555050505b505050505050565b6137fb80620006af6000396000f3fe608060405234801561001057600080fd5b506004361061012c5760003560e01c806370a08231116100ad578063b88d4fde11610071578063b88d4fde14610343578063c87b56dd1461035f578063d204c45e1461038f578063e985e9c5146103ab578063f2fde38b146103db5761012c565b806370a08231146102b1578063715018a6146102e15780638da5cb5b146102eb57806395d89b4114610309578063a22cb465146103275761012c565b806323b872dd116100f457806323b872dd146101e95780632f745c591461020557806342842e0e146102355780634f6ccce7146102515780636352211e146102815761012c565b806301ffc9a71461013157806306fdde0314610161578063081812fc1461017f578063095ea7b3146101af57806318160ddd146101cb575b600080fd5b61014b60048036038101906101469190612375565b6103f7565b60405161015891906123bd565b60405180910390f35b610169610409565b6040516101769190612468565b60405180910390f35b610199600480360381019061019491906124c0565b61049b565b6040516101a6919061252e565b60405180910390f35b6101c960048036038101906101c49190612575565b6104e1565b005b6101d36105f8565b6040516101e091906125c4565b60405180910390f35b61020360048036038101906101fe91906125df565b610605565b005b61021f600480360381019061021a9190612575565b610665565b60405161022c91906125c4565b60405180910390f35b61024f600480360381019061024a91906125df565b61070a565b005b61026b600480360381019061026691906124c0565b61072a565b60405161027891906125c4565b60405180910390f35b61029b600480360381019061029691906124c0565b61079b565b6040516102a8919061252e565b60405180910390f35b6102cb60048036038101906102c69190612632565b610821565b6040516102d891906125c4565b60405180910390f35b6102e96108d8565b005b6102f36108ec565b604051610300919061252e565b60405180910390f35b610311610916565b60405161031e9190612468565b60405180910390f35b610341600480360381019061033c919061268b565b6109a8565b005b61035d60048036038101906103589190612800565b6109be565b005b610379600480360381019061037491906124c0565b610a20565b6040516103869190612468565b60405180910390f35b6103a960048036038101906103a49190612924565b610a32565b005b6103c560048036038101906103c09190612980565b610a6b565b6040516103d291906123bd565b60405180910390f35b6103f560048036038101906103f09190612632565b610aff565b005b600061040282610b82565b9050919050565b606060008054610418906129ef565b80601f0160208091040260200160405190810160405280929190818152602001828054610444906129ef565b80156104915780601f1061046657610100808354040283529160200191610491565b820191906000526020600020905b81548152906001019060200180831161047457829003601f168201915b5050505050905090565b60006104a682610be3565b6004600083815260200190815260200160002060009054906101000a900473ffffffffffffffffffffffffffffffffffffffff169050919050565b60006104ec8261079b565b90508073ffffffffffffffffffffffffffffffffffffffff168373ffffffffffffffffffffffffffffffffffffffff160361055c576040517f08c379a000000000000000000000000000000000000000000000000000000000815260040161055390612a92565b60405180910390fd5b8073ffffffffffffffffffffffffffffffffffffffff1661057b610c2e565b73ffffffffffffffffffffffffffffffffffffffff1614806105aa57506105a9816105a4610c2e565b610a6b565b5b6105e9576040517f08c379a00000000000000000000000000000000000000000000000000000000081526004016105e090612b24565b60405180910390fd5b6105f38383610c36565b505050565b6000600880549050905090565b610616610610610c2e565b82610cef565b610655576040517f08c379a000000000000000000000000000000000000000000000000000000000815260040161064c90612bb6565b60405180910390fd5b610660838383610d84565b505050565b600061067083610821565b82106106b1576040517f08c379a00000000000000000000000000000000000000000000000000000000081526004016106a890612c48565b60405180910390fd5b600660008473ffffffffffffffffffffffffffffffffffffffff1673ffffffffffffffffffffffffffffffffffffffff168152602001908152602001600020600083815260200190815260200160002054905092915050565b610725838383604051806020016040528060008152506109be565b505050565b60006107346105f8565b8210610775576040517f08c379a000000000000000000000000000000000000000000000000000000000815260040161076c90612cda565b60405180910390fd5b6008828154811061078957610788612cfa565b5b90600052602060002001549050919050565b6000806107a78361107d565b9050600073ffffffffffffffffffffffffffffffffffffffff168173ffffffffffffffffffffffffffffffffffffffff1603610818576040517f08c379a000000000000000000000000000000000000000000000000000000000815260040161080f90612d75565b60405180910390fd5b80915050919050565b60008073ffffffffffffffffffffffffffffffffffffffff168273ffffffffffffffffffffffffffffffffffffffff1603610891576040517f08c379a000000000000000000000000000000000000000000000000000000000815260040161088890612e07565b60405180910390fd5b600360008373ffffffffffffffffffffffffffffffffffffffff1673ffffffffffffffffffffffffffffffffffffffff168152602001908152602001600020549050919050565b6108e06110ba565b6108ea6000611138565b565b6000600b60009054906101000a900473ffffffffffffffffffffffffffffffffffffffff16905090565b606060018054610925906129ef565b80601f0160208091040260200160405190810160405280929190818152602001828054610951906129ef565b801561099e5780601f106109735761010080835404028352916020019161099e565b820191906000526020600020905b81548152906001019060200180831161098157829003601f168201915b5050505050905090565b6109ba6109b3610c2e565b83836111fe565b5050565b6109cf6109c9610c2e565b83610cef565b610a0e576040517f08c379a0000000000000000000000000000000000000000000000000000000008152600401610a0590612bb6565b60405180910390fd5b610a1a8484848461136a565b50505050565b6060610a2b826113c6565b9050919050565b610a3a6110ba565b6000610a46600c6114d8565b9050610a52600c6114e6565b610a5c83826114fc565b610a66818361151a565b505050565b6000600560008473ffffffffffffffffffffffffffffffffffffffff1673ffffffffffffffffffffffffffffffffffffffff16815260200190815260200160002060008373ffffffffffffffffffffffffffffffffffffffff1673ffffffffffffffffffffffffffffffffffffffff16815260200190815260200160002060009054906101000a900460ff16905092915050565b610b076110ba565b600073ffffffffffffffffffffffffffffffffffffffff168173ffffffffffffffffffffffffffffffffffffffff1603610b76576040517f08c379a0000000000000000000000000000000000000000000000000000000008152600401610b6d90612e99565b60405180910390fd5b610b7f81611138565b50565b6000634906490660e01b7bffffffffffffffffffffffffffffffffffffffffffffffffffffffff1916827bffffffffffffffffffffffffffffffffffffffffffffffffffffffff19161480610bdc5750610bdb826115be565b5b9050919050565b610bec81611638565b610c2b576040517f08c379a0000000000000000000000000000000000000000000000000000000008152600401610c2290612d75565b60405180910390fd5b50565b600033905090565b816004600083815260200190815260200160002060006101000a81548173ffffffffffffffffffffffffffffffffffffffff021916908373ffffffffffffffffffffffffffffffffffffffff160217905550808273ffffffffffffffffffffffffffffffffffffffff16610ca98361079b565b73ffffffffffffffffffffffffffffffffffffffff167f8c5be1e5ebec7d5bd14f71427d1e84f3dd0314c0f7b2291e5b200ac8c7c3b92560405160405180910390a45050565b600080610cfb8361079b565b90508073ffffffffffffffffffffffffffffffffffffffff168473ffffffffffffffffffffffffffffffffffffffff161480610d3d5750610d3c8185610a6b565b5b80610d7b57508373ffffffffffffffffffffffffffffffffffffffff16610d638461049b565b73ffffffffffffffffffffffffffffffffffffffff16145b91505092915050565b8273ffffffffffffffffffffffffffffffffffffffff16610da48261079b565b73ffffffffffffffffffffffffffffffffffffffff1614610dfa576040517f08c379a0000000000000000000000000000000000000000000000000000000008152600401610df190612f2b565b60405180910390fd5b600073ffffffffffffffffffffffffffffffffffffffff168273ffffffffffffffffffffffffffffffffffffffff1603610e69576040517f08c379a0000000000000000000000000000000000000000000000000000000008152600401610e6090612fbd565b60405180910390fd5b610e768383836001611679565b8273ffffffffffffffffffffffffffffffffffffffff16610e968261079b565b73ffffffffffffffffffffffffffffffffffffffff1614610eec576040517f08c379a0000000000000000000000000000000000000000000000000000000008152600401610ee390612f2b565b60405180910390fd5b6004600082815260200190815260200160002060006101000a81549073ffffffffffffffffffffffffffffffffffffffff02191690556001600360008573ffffffffffffffffffffffffffffffffffffffff1673ffffffffffffffffffffffffffffffffffffffff168152602001908152602001600020600082825403925050819055506001600360008473ffffffffffffffffffffffffffffffffffffffff1673ffffffffffffffffffffffffffffffffffffffff16815260200190815260200160002060008282540192505081905550816002600083815260200190815260200160002060006101000a81548173ffffffffffffffffffffffffffffffffffffffff021916908373ffffffffffffffffffffffffffffffffffffffff160217905550808273ffffffffffffffffffffffffffffffffffffffff168473ffffffffffffffffffffffffffffffffffffffff167fddf252ad1be2c89b69c2b068fc378daa952ba7f163c4a11628f55a4df523b3ef60405160405180910390a4611078838383600161168b565b505050565b60006002600083815260200190815260200160002060009054906101000a900473ffffffffffffffffffffffffffffffffffffffff169050919050565b6110c2610c2e565b73ffffffffffffffffffffffffffffffffffffffff166110e06108ec565b73ffffffffffffffffffffffffffffffffffffffff1614611136576040517f08c379a000000000000000000000000000000000000000000000000000000000815260040161112d90613029565b60405180910390fd5b565b6000600b60009054906101000a900473ffffffffffffffffffffffffffffffffffffffff16905081600b60006101000a81548173ffffffffffffffffffffffffffffffffffffffff021916908373ffffffffffffffffffffffffffffffffffffffff1602179055508173ffffffffffffffffffffffffffffffffffffffff168173ffffffffffffffffffffffffffffffffffffffff167f8be0079c531659141344cd1fd0a4f28419497f9722a3daafe3b4186f6b6457e060405160405180910390a35050565b8173ffffffffffffffffffffffffffffffffffffffff168373ffffffffffffffffffffffffffffffffffffffff160361126c576040517f08c379a000000000000000000000000000000000000000000000000000000000815260040161126390613095565b60405180910390fd5b80600560008573ffffffffffffffffffffffffffffffffffffffff1673ffffffffffffffffffffffffffffffffffffffff16815260200190815260200160002060008473ffffffffffffffffffffffffffffffffffffffff1673ffffffffffffffffffffffffffffffffffffffff16815260200190815260200160002060006101000a81548160ff0219169083151502179055508173ffffffffffffffffffffffffffffffffffffffff168373ffffffffffffffffffffffffffffffffffffffff167f17307eab39ab6107e8899845ad3d59bd9653f200f220920489ca2b5937696c318360405161135d91906123bd565b60405180910390a3505050565b611375848484610d84565b61138184848484611691565b6113c0576040517f08c379a00000000000000000000000000000000000000000000000000000000081526004016113b790613127565b60405180910390fd5b50505050565b60606113d182610be3565b6000600a600084815260200190815260200160002080546113f1906129ef565b80601f016020809104026020016040519081016040528092919081815260200182805461141d906129ef565b801561146a5780601f1061143f5761010080835404028352916020019161146a565b820191906000526020600020905b81548152906001019060200180831161144d57829003601f168201915b50505050509050600061147b611818565b905060008151036114905781925050506114d3565b6000825111156114c55780826040516020016114ad929190613183565b604051602081830303815290604052925050506114d3565b6114ce8461182f565b925050505b919050565b600081600001549050919050565b6001816000016000828254019250508190555050565b611516828260405180602001604052806000815250611897565b5050565b61152382611638565b611562576040517f08c379a000000000000000000000000000000000000000000000000000000000815260040161155990613219565b60405180910390fd5b80600a6000848152602001908152602001600020908161158291906133e5565b507ff8e1a15aba9398e019f0b49df1a4fde98ee17ae345cb5f6b5e2c27f5033e8ce7826040516115b291906125c4565b60405180910390a15050565b60007f780e9d63000000000000000000000000000000000000000000000000000000007bffffffffffffffffffffffffffffffffffffffffffffffffffffffff1916827bffffffffffffffffffffffffffffffffffffffffffffffffffffffff191614806116315750611630826118f2565b5b9050919050565b60008073ffffffffffffffffffffffffffffffffffffffff1661165a8361107d565b73ffffffffffffffffffffffffffffffffffffffff1614159050919050565b611685848484846119d4565b50505050565b50505050565b60006116b28473ffffffffffffffffffffffffffffffffffffffff16611b32565b1561180b578373ffffffffffffffffffffffffffffffffffffffff1663150b7a026116db610c2e565b8786866040518563ffffffff1660e01b81526004016116fd949392919061350c565b6020604051808303816000875af192505050801561173957506040513d601f19601f82011682018060405250810190611736919061356d565b60015b6117bb573d8060008114611769576040519150601f19603f3d011682016040523d82523d6000602084013e61176e565b606091505b5060008151036117b3576040517f08c379a00000000000000000000000000000000000000000000000000000000081526004016117aa90613127565b60405180910390fd5b805181602001fd5b63150b7a0260e01b7bffffffffffffffffffffffffffffffffffffffffffffffffffffffff1916817bffffffffffffffffffffffffffffffffffffffffffffffffffffffff191614915050611810565b600190505b949350505050565b606060405180602001604052806000815250905090565b606061183a82610be3565b6000611844611818565b90506000815111611864576040518060200160405280600081525061188f565b8061186e84611b55565b60405160200161187f929190613183565b6040516020818303038152906040525b915050919050565b6118a18383611c23565b6118ae6000848484611691565b6118ed576040517f08c379a00000000000000000000000000000000000000000000000000000000081526004016118e490613127565b60405180910390fd5b505050565b60007f80ac58cd000000000000000000000000000000000000000000000000000000007bffffffffffffffffffffffffffffffffffffffffffffffffffffffff1916827bffffffffffffffffffffffffffffffffffffffffffffffffffffffff191614806119bd57507f5b5e139f000000000000000000000000000000000000000000000000000000007bffffffffffffffffffffffffffffffffffffffffffffffffffffffff1916827bffffffffffffffffffffffffffffffffffffffffffffffffffffffff1916145b806119cd57506119cc82611e40565b5b9050919050565b6119e084848484611eaa565b6001811115611a24576040517f08c379a0000000000000000000000000000000000000000000000000000000008152600401611a1b9061360c565b60405180910390fd5b6000829050600073ffffffffffffffffffffffffffffffffffffffff168573ffffffffffffffffffffffffffffffffffffffff1603611a6b57611a6681611eb0565b611aaa565b8373ffffffffffffffffffffffffffffffffffffffff168573ffffffffffffffffffffffffffffffffffffffff1614611aa957611aa88582611ef9565b5b5b600073ffffffffffffffffffffffffffffffffffffffff168473ffffffffffffffffffffffffffffffffffffffff1603611aec57611ae781612066565b611b2b565b8473ffffffffffffffffffffffffffffffffffffffff168473ffffffffffffffffffffffffffffffffffffffff1614611b2a57611b298482612137565b5b5b5050505050565b6000808273ffffffffffffffffffffffffffffffffffffffff163b119050919050565b606060006001611b64846121b6565b01905060008167ffffffffffffffff811115611b8357611b826126d5565b5b6040519080825280601f01601f191660200182016040528015611bb55781602001600182028036833780820191505090505b509050600082602001820190505b600115611c18578080600190039150507f3031323334353637383961626364656600000000000000000000000000000000600a86061a8153600a8581611c0c57611c0b61362c565b5b04945060008503611bc3575b819350505050919050565b600073ffffffffffffffffffffffffffffffffffffffff168273ffffffffffffffffffffffffffffffffffffffff1603611c92576040517f08c379a0000000000000000000000000000000000000000000000000000000008152600401611c89906136a7565b60405180910390fd5b611c9b81611638565b15611cdb576040517f08c379a0000000000000000000000000000000000000000000000000000000008152600401611cd290613713565b60405180910390fd5b611ce9600083836001611679565b611cf281611638565b15611d32576040517f08c379a0000000000000000000000000000000000000000000000000000000008152600401611d2990613713565b60405180910390fd5b6001600360008473ffffffffffffffffffffffffffffffffffffffff1673ffffffffffffffffffffffffffffffffffffffff16815260200190815260200160002060008282540192505081905550816002600083815260200190815260200160002060006101000a81548173ffffffffffffffffffffffffffffffffffffffff021916908373ffffffffffffffffffffffffffffffffffffffff160217905550808273ffffffffffffffffffffffffffffffffffffffff16600073ffffffffffffffffffffffffffffffffffffffff167fddf252ad1be2c89b69c2b068fc378daa952ba7f163c4a11628f55a4df523b3ef60405160405180910390a4611e3c60008383600161168b565b5050565b60007f01ffc9a7000000000000000000000000000000000000000000000000000000007bffffffffffffffffffffffffffffffffffffffffffffffffffffffff1916827bffffffffffffffffffffffffffffffffffffffffffffffffffffffff1916149050919050565b50505050565b6008805490506009600083815260200190815260200160002081905550600881908060018154018082558091505060019003906000526020600020016000909190919091505550565b60006001611f0684610821565b611f109190613762565b9050600060076000848152602001908152602001600020549050818114611ff5576000600660008673ffffffffffffffffffffffffffffffffffffffff1673ffffffffffffffffffffffffffffffffffffffff168152602001908152602001600020600084815260200190815260200160002054905080600660008773ffffffffffffffffffffffffffffffffffffffff1673ffffffffffffffffffffffffffffffffffffffff168152602001908152602001600020600084815260200190815260200160002081905550816007600083815260200190815260200160002081905550505b6007600084815260200190815260200160002060009055600660008573ffffffffffffffffffffffffffffffffffffffff1673ffffffffffffffffffffffffffffffffffffffff16815260200190815260200160002060008381526020019081526020016000206000905550505050565b6000600160088054905061207a9190613762565b90506000600960008481526020019081526020016000205490506000600883815481106120aa576120a9612cfa565b5b9060005260206000200154905080600883815481106120cc576120cb612cfa565b5b90600052602060002001819055508160096000838152602001908152602001600020819055506009600085815260200190815260200160002060009055600880548061211b5761211a613796565b5b6001900381819060005260206000200160009055905550505050565b600061214283610821565b905081600660008573ffffffffffffffffffffffffffffffffffffffff1673ffffffffffffffffffffffffffffffffffffffff168152602001908152602001600020600083815260200190815260200160002081905550806007600084815260200190815260200160002081905550505050565b600080600090507a184f03e93ff9f4daa797ed6e38ed64bf6a1f0100000000000000008310612214577a184f03e93ff9f4daa797ed6e38ed64bf6a1f010000000000000000838161220a5761220961362c565b5b0492506040810190505b6d04ee2d6d415b85acef81000000008310612251576d04ee2d6d415b85acef810000000083816122475761224661362c565b5b0492506020810190505b662386f26fc10000831061228057662386f26fc1000083816122765761227561362c565b5b0492506010810190505b6305f5e10083106122a9576305f5e100838161229f5761229e61362c565b5b0492506008810190505b61271083106122ce5761271083816122c4576122c361362c565b5b0492506004810190505b606483106122f157606483816122e7576122e661362c565b5b0492506002810190505b600a8310612300576001810190505b80915050919050565b6000604051905090565b600080fd5b600080fd5b60007fffffffff0000000000000000000000000000000000000000000000000000000082169050919050565b6123528161231d565b811461235d57600080fd5b50565b60008135905061236f81612349565b92915050565b60006020828403121561238b5761238a612313565b5b600061239984828501612360565b91505092915050565b60008115159050919050565b6123b7816123a2565b82525050565b60006020820190506123d260008301846123ae565b92915050565b600081519050919050565b600082825260208201905092915050565b60005b838110156124125780820151818401526020810190506123f7565b60008484015250505050565b6000601f19601f8301169050919050565b600061243a826123d8565b61244481856123e3565b93506124548185602086016123f4565b61245d8161241e565b840191505092915050565b60006020820190508181036000830152612482818461242f565b905092915050565b6000819050919050565b61249d8161248a565b81146124a857600080fd5b50565b6000813590506124ba81612494565b92915050565b6000602082840312156124d6576124d5612313565b5b60006124e4848285016124ab565b91505092915050565b600073ffffffffffffffffffffffffffffffffffffffff82169050919050565b6000612518826124ed565b9050919050565b6125288161250d565b82525050565b6000602082019050612543600083018461251f565b92915050565b6125528161250d565b811461255d57600080fd5b50565b60008135905061256f81612549565b92915050565b6000806040838503121561258c5761258b612313565b5b600061259a85828601612560565b92505060206125ab858286016124ab565b9150509250929050565b6125be8161248a565b82525050565b60006020820190506125d960008301846125b5565b92915050565b6000806000606084860312156125f8576125f7612313565b5b600061260686828701612560565b935050602061261786828701612560565b9250506040612628868287016124ab565b9150509250925092565b60006020828403121561264857612647612313565b5b600061265684828501612560565b91505092915050565b612668816123a2565b811461267357600080fd5b50565b6000813590506126858161265f565b92915050565b600080604083850312156126a2576126a1612313565b5b60006126b085828601612560565b92505060206126c185828601612676565b9150509250929050565b600080fd5b600080fd5b7f4e487b7100000000000000000000000000000000000000000000000000000000600052604160045260246000fd5b61270d8261241e565b810181811067ffffffffffffffff8211171561272c5761272b6126d5565b5b80604052505050565b600061273f612309565b905061274b8282612704565b919050565b600067ffffffffffffffff82111561276b5761276a6126d5565b5b6127748261241e565b9050602081019050919050565b82818337600083830152505050565b60006127a361279e84612750565b612735565b9050828152602081018484840111156127bf576127be6126d0565b5b6127ca848285612781565b509392505050565b600082601f8301126127e7576127e66126cb565b5b81356127f7848260208601612790565b91505092915050565b6000806000806080858703121561281a57612819612313565b5b600061282887828801612560565b945050602061283987828801612560565b935050604061284a878288016124ab565b925050606085013567ffffffffffffffff81111561286b5761286a612318565b5b612877878288016127d2565b91505092959194509250565b600067ffffffffffffffff82111561289e5761289d6126d5565b5b6128a78261241e565b9050602081019050919050565b60006128c76128c284612883565b612735565b9050828152602081018484840111156128e3576128e26126d0565b5b6128ee848285612781565b509392505050565b600082601f83011261290b5761290a6126cb565b5b813561291b8482602086016128b4565b91505092915050565b6000806040838503121561293b5761293a612313565b5b600061294985828601612560565b925050602083013567ffffffffffffffff81111561296a57612969612318565b5b612976858286016128f6565b9150509250929050565b6000806040838503121561299757612996612313565b5b60006129a585828601612560565b92505060206129b685828601612560565b9150509250929050565b7f4e487b7100000000000000000000000000000000000000000000000000000000600052602260045260246000fd5b60006002820490506001821680612a0757607f821691505b602082108103612a1a57612a196129c0565b5b50919050565b7f4552433732313a20617070726f76616c20746f2063757272656e74206f776e6560008201527f7200000000000000000000000000000000000000000000000000000000000000602082015250565b6000612a7c6021836123e3565b9150612a8782612a20565b604082019050919050565b60006020820190508181036000830152612aab81612a6f565b9050919050565b7f4552433732313a20617070726f76652063616c6c6572206973206e6f7420746f60008201527f6b656e206f776e6572206f7220617070726f76656420666f7220616c6c000000602082015250565b6000612b0e603d836123e3565b9150612b1982612ab2565b604082019050919050565b60006020820190508181036000830152612b3d81612b01565b9050919050565b7f4552433732313a2063616c6c6572206973206e6f7420746f6b656e206f776e6560008201527f72206f7220617070726f76656400000000000000000000000000000000000000602082015250565b6000612ba0602d836123e3565b9150612bab82612b44565b604082019050919050565b60006020820190508181036000830152612bcf81612b93565b9050919050565b7f455243373231456e756d657261626c653a206f776e657220696e646578206f7560008201527f74206f6620626f756e6473000000000000000000000000000000000000000000602082015250565b6000612c32602b836123e3565b9150612c3d82612bd6565b604082019050919050565b60006020820190508181036000830152612c6181612c25565b9050919050565b7f455243373231456e756d657261626c653a20676c6f62616c20696e646578206f60008201527f7574206f6620626f756e64730000000000000000000000000000000000000000602082015250565b6000612cc4602c836123e3565b9150612ccf82612c68565b604082019050919050565b60006020820190508181036000830152612cf381612cb7565b9050919050565b7f4e487b7100000000000000000000000000000000000000000000000000000000600052603260045260246000fd5b7f4552433732313a20696e76616c696420746f6b656e2049440000000000000000600082015250565b6000612d5f6018836123e3565b9150612d6a82612d29565b602082019050919050565b60006020820190508181036000830152612d8e81612d52565b9050919050565b7f4552433732313a2061646472657373207a65726f206973206e6f74206120766160008201527f6c6964206f776e65720000000000000000000000000000000000000000000000602082015250565b6000612df16029836123e3565b9150612dfc82612d95565b604082019050919050565b60006020820190508181036000830152612e2081612de4565b9050919050565b7f4f776e61626c653a206e6577206f776e657220697320746865207a65726f206160008201527f6464726573730000000000000000000000000000000000000000000000000000602082015250565b6000612e836026836123e3565b9150612e8e82612e27565b604082019050919050565b60006020820190508181036000830152612eb281612e76565b9050919050565b7f4552433732313a207472616e736665722066726f6d20696e636f72726563742060008201527f6f776e6572000000000000000000000000000000000000000000000000000000602082015250565b6000612f156025836123e3565b9150612f2082612eb9565b604082019050919050565b60006020820190508181036000830152612f4481612f08565b9050919050565b7f4552433732313a207472616e7366657220746f20746865207a65726f2061646460008201527f7265737300000000000000000000000000000000000000000000000000000000602082015250565b6000612fa76024836123e3565b9150612fb282612f4b565b604082019050919050565b60006020820190508181036000830152612fd681612f9a565b9050919050565b7f4f776e61626c653a2063616c6c6572206973206e6f7420746865206f776e6572600082015250565b60006130136020836123e3565b915061301e82612fdd565b602082019050919050565b6000602082019050818103600083015261304281613006565b9050919050565b7f4552433732313a20617070726f766520746f2063616c6c657200000000000000600082015250565b600061307f6019836123e3565b915061308a82613049565b602082019050919050565b600060208201905081810360008301526130ae81613072565b9050919050565b7f4552433732313a207472616e7366657220746f206e6f6e20455243373231526560008201527f63656976657220696d706c656d656e7465720000000000000000000000000000602082015250565b60006131116032836123e3565b915061311c826130b5565b604082019050919050565b6000602082019050818103600083015261314081613104565b9050919050565b600081905092915050565b600061315d826123d8565b6131678185613147565b93506131778185602086016123f4565b80840191505092915050565b600061318f8285613152565b915061319b8284613152565b91508190509392505050565b7f45524337323155524953746f726167653a2055524920736574206f66206e6f6e60008201527f6578697374656e7420746f6b656e000000000000000000000000000000000000602082015250565b6000613203602e836123e3565b915061320e826131a7565b604082019050919050565b60006020820190508181036000830152613232816131f6565b9050919050565b60008190508160005260206000209050919050565b60006020601f8301049050919050565b600082821b905092915050565b60006008830261329b7fffffffffffffffffffffffffffffffffffffffffffffffffffffffffffffffff8261325e565b6132a5868361325e565b95508019841693508086168417925050509392505050565b6000819050919050565b60006132e26132dd6132d88461248a565b6132bd565b61248a565b9050919050565b6000819050919050565b6132fc836132c7565b613310613308826132e9565b84845461326b565b825550505050565b600090565b613325613318565b6133308184846132f3565b505050565b5b818110156133545761334960008261331d565b600181019050613336565b5050565b601f8211156133995761336a81613239565b6133738461324e565b81016020851015613382578190505b61339661338e8561324e565b830182613335565b50505b505050565b600082821c905092915050565b60006133bc6000198460080261339e565b1980831691505092915050565b60006133d583836133ab565b9150826002028217905092915050565b6133ee826123d8565b67ffffffffffffffff811115613407576134066126d5565b5b61341182546129ef565b61341c828285613358565b600060209050601f83116001811461344f576000841561343d578287015190505b61344785826133c9565b8655506134af565b601f19841661345d86613239565b60005b8281101561348557848901518255600182019150602085019450602081019050613460565b868310156134a2578489015161349e601f8916826133ab565b8355505b6001600288020188555050505b505050505050565b600081519050919050565b600082825260208201905092915050565b60006134de826134b7565b6134e881856134c2565b93506134f88185602086016123f4565b6135018161241e565b840191505092915050565b6000608082019050613521600083018761251f565b61352e602083018661251f565b61353b60408301856125b5565b818103606083015261354d81846134d3565b905095945050505050565b60008151905061356781612349565b92915050565b60006020828403121561358357613582612313565b5b600061359184828501613558565b91505092915050565b7f455243373231456e756d657261626c653a20636f6e736563757469766520747260008201527f616e7366657273206e6f7420737570706f727465640000000000000000000000602082015250565b60006135f66035836123e3565b91506136018261359a565b604082019050919050565b60006020820190508181036000830152613625816135e9565b9050919050565b7f4e487b7100000000000000000000000000000000000000000000000000000000600052601260045260246000fd5b7f4552433732313a206d696e7420746f20746865207a65726f2061646472657373600082015250565b60006136916020836123e3565b915061369c8261365b565b602082019050919050565b600060208201905081810360008301526136c081613684565b9050919050565b7f4552433732313a20746f6b656e20616c7265616479206d696e74656400000000600082015250565b60006136fd601c836123e3565b9150613708826136c7565b602082019050919050565b6000602082019050818103600083015261372c816136f0565b9050919050565b7f4e487b7100000000000000000000000000000000000000000000000000000000600052601160045260246000fd5b600061376d8261248a565b91506137788361248a565b92508282039050818111156137905761378f613733565b5b92915050565b7f4e487b7100000000000000000000000000000000000000000000000000000000600052603160045260246000fdfea2646970667358221220d4b9f62ceaa2d8c4276dddddac31b6d675e3e814120910af7588bbed7eb6030464736f6c63430008130033a264697066735822122092f9a4f892ebd24bb15b7949edb02e653787d00e1e23862d0db38c8bce6700a664736f6c63430008130033",
  "linkReferences": {},
  "deployedLinkReferences": {}
}